:100000000C94CF000C94EC000C94EC000C94EC00DD
:100010000C94EC000C94EC000C94EC000C94EC00B0
:100020000C94EC000C94EC000C94EC000C94EC00A0
:100030000C94EC000C94EC000C94EC000C94EC0090
:100040000C94EC000C94EC000C94EC000C94EC0080
:100050000C94EC000C94EC000C94EC000C94EC0070
:100060000C94EC000C94EC004E414E494E4954590E
:10007000494E46CDCCCC3D0AD7233C17B7D1387773
:10008000CC2B329595E6241FB14F0A000020410089
:1000900000C84200401C4620BCBE4CCA1B0E5AAED3
:1000A000C59D7400407A10F35A00A0724E180900E2
:1000B00010A5D4E80000E87648170000E40B5402CD
:1000C0000000CA9A3B000000E1F505000080969808
:1000D00000000040420F000000A086010000001058
:1000E0002700000000E8030000000064000000009A
:1000F000000A00000000000100000000002C76D87B
:1001000088DC674F0823DFC1DFAE59E1B1B796E560
:10011000E3E453C63AE651997696E8E6C28426EBC4
:10012000898C9B62ED407C6FFCEFBC9C9F40F2BAD7
:10013000A56FA5F490055A2AF75C936B6CF9676D6F
:10014000C11BFCE0E40D47FEF520E6B500D0ED90C4
:100150002E0300943577050080841E080000204E91
:100160000A000000C80C333333330F986E1283112A
:1001700041EF8D2114893BE65516CFFEE6DB18D101
:10018000844B381BF77C1D901DA4BBE424203284D3
:10019000725E228100C9F124ECA1E53D2700112403
:1001A0001FBECFEFD8E0DEBFCDBF12E0A0E0B1E0D0
:1001B000E2EEF7E102C005900D92AA34B107D9F73B
:1001C00022E0AAE4B2E001C01D92A035B207E1F737
:1001D0000E940D020C94EF0B0C9400009093C5004C
:1001E0008093C40088E18093C10086E08093C200C0
:1001F00008959091C00095FFFCCF8093C6000895AC
:10020000CF93DF93EC0103C021960E94F90088810F
:100210008111FACFDF91CF9108958091C00088239A
:10022000E4F78091C6000895FF920F931F93CF9338
:10023000DF93EC01F62E10E00FC00E940D018D300F
:1002400099F08A3089F001E0010FFE01E10FF11D04
:1002500080830E94F900102F212F30E08F2D90E035
:100260000197281739074CF3C10FD11D1882DF9170
:10027000CF911F910F91FF90089502C08091C60009
:100280008091C0008823D4F308958AB18B7F8AB906
:100290008AB188608AB908954A99FECF90E040E01B
:1002A00050E0BA0119C08BB188608BB985E08A959E
:1002B000F1F70000440F551F661F771F8BB1877F32
:1002C0008BB985E08A95F1F700004A9B04C04F5F27
:1002D0005F4F6F4F7F4F9F5F983128F38BB18860DE
:1002E0008BB985E08A95F1F700008BB1877F8BB9D8
:1002F00085E08A95F1F7000067FD7F6FCB01BA01B9
:100300000895CF92DF92EF92FF92CF93DF93D82F91
:10031000C0E0C12CD12C760107C00E944C01C60E52
:10032000D71EE81EF91ECF5FCD17B8F32D2F30E092
:1003300040E050E0C701B6010E944104CA01B90182
:10034000DF91CF91FF90EF90DF90CF900895409193
:100350004A0250914B0260914C0270914D0284E030
:1003600090E00E94700B409100015091010160915A
:1003700002017091030180E090E00E94700B0895EB
:1003800084E090E00E946A0B60934A0270934B02F3
:1003900080934C0290934D0280E090E00E946A0BA3
:1003A0006093000170930101809302019093030117
:1003B00020E030E0A9010E941803181664F080E0E4
:1003C00090E0A0E8BFE38093000190930101A09327
:1003D0000201B093030108950F931F93CF93DF930E
:1003E000CDB7DEB764970FB6F894DEBF0FBECDBFB2
:1003F000242F8E010F5F1F4F40E00E948204C8012E
:100400000E94000164960FB6F894DEBF0FBECDBF08
:10041000DF91CF911F910F910895CF93DF93CDB7C7
:10042000DEB764970FB6F894DEBF0FBECDBF87E688
:1004300090E00E94EE000E9445010E94C00184E00D
:1004400091E00E94000180E291E00E9400018CE2B4
:1004500091E00E94000189E391E00E9400018AE599
:1004600091E00E9400010E940D01843789F58FE61A
:1004700091E00E9400018AE00E94810160934A029B
:1004800070934B0280934C0290934D020E94A701FF
:1004900080914D028F9380914C028F9380914B02FB
:1004A0008F9380914A028F9386E891E09F938F9378
:1004B0008E010F5F1F4F1F930F930E94A604C80168
:1004C0000E9400010FB6F894DEBF0FBECDBFCBCFA8
:1004D000833609F065C085EA91E00E9400010E9420
:1004E0003D0164E1CE0101960E94140184ED91E08A
:1004F0000E940001CE0101960E94000187E492E073
:100500000E940001CE0101960E94A2046B017C01B1
:1005100020E030E0A9010E94180318162CF08EED9F
:1005200091E00E9400019FCF89EF91E00E940001BD
:100530008AE00E94810120914A0230914B02CB0156
:10054000821B930BBC0122F466277727681B790B6B
:10055000072E000C880B990B0E949103A7019601AE
:100560000E941D03609300017093010180930201BA
:10057000909303010E94A70186E192E00E9400018E
:10058000609100017091010180910201909103013D
:1005900044E00E94EC0187E492E00E94000163CFF6
:1005A000803709F060CF8AE00E9481016B017C01F5
:1005B00080914A0290914B029601281B390BB90198
:1005C00022F466277727621B730B072E000C880B1B
:1005D000990B0E94910320910001309101014091FB
:1005E0000201509103010E941D034B015C0184E351
:1005F00092E00E94000142E0C501B4010E94EC01BA
:10060000FF92EF92DF92CF928BE392E09F938F93D2
:100610008E010F5F1F4F1F930F930E94A604C80106
:100620000E9400010FB6F894DEBF0FBECDBF1BCFF6
:100630000E94CC0308F481E008950E9431030C94D9
:1006400007040E94000458F00E94F90340F029F4C6
:100650005F3F29F00C94F00351110C943B040C946F
:10066000F6030E94180468F39923B1F3552391F31C
:10067000951B550BBB27AA2762177307840738F011
:100680009F5F5F4F220F331F441FAA1FA9F335D06E
:100690000E2E3AF0E0E832D091505040E695001C22
:1006A000CAF72BD0FE2F29D0660F771F881FBB1FDC
:1006B000261737074807AB07B0E809F0BB0B802DBA
:1006C000BF01FF2793585F4F3AF09E3F510578F0E6
:1006D0000C94F0030C943B045F3FE4F3983ED4F396
:1006E000869577956795B795F7959F5FC9F7880FBA
:1006F000911D9695879597F90895E1E0660F771F0C
:10070000881FBB1F621773078407BA0720F0621B9C
:10071000730B840BBA0BEE1F88F7E0950895E894ED
:1007200009C097FB3EF490958095709561957F4F39
:100730008F4F9F4F9923A9F0F92F96E9BB279395E7
:10074000F695879577956795B795F111F8CFFAF4F7
:10075000BB0F11F460FF1BC06F5F7F4F8F4F9F4F28
:1007600016C0882311F096E911C0772321F09EE886
:10077000872F762F05C0662371F096E8862F70E0EC
:1007800060E02AF09A95660F771F881FDAF7880FC6
:100790009695879597F90895990F0008550FAA0B1C
:1007A000E0E8FEEF16161706E807F907C0F0121684
:1007B0001306E407F50798F0621B730B840B950B87
:1007C00039F40A2661F0232B242B252B21F40895DC
:1007D0000A2609F4A140A6958FEF811D811D089579
:1007E00097F99F6780E870E060E008959FEF80ECE4
:1007F000089500240A941616170618060906089587
:1008000000240A9412161306140605060895092EEC
:100810000394000C11F4882352F0BB0F40F4BF2B5B
:1008200011F460FF04C06F5F7F4F8F4F9F4F08959B
:1008300057FD9058440F551F59F05F3F71F0479591
:10084000880F97FB991F61F09F3F79F08795089576
:10085000121613061406551FF2CF4695F1DF08C095
:10086000161617061806991FF1CF869571056105B2
:1008700008940895E894BB2766277727CB0197F95A
:100880000895052E97FB1EF400940E94580457FD0E
:1008900007D00E94600407FC03D04EF40C94580467
:1008A00050954095309521953F4F4F4F5F4F08959C
:1008B00090958095709561957F4F8F4F9F4F0895CC
:1008C000A1E21A2EAA1BBB1BFD010DC0AA1FBB1F54
:1008D000EE1FFF1FA217B307E407F50720F0A21BC6
:1008E000B30BE40BF50B661F771F881F991F1A9433
:1008F00069F760957095809590959B01AC01BD015D
:10090000CF010895EF920F931F93CF93DF93E801E8
:1009100047FD02C034E001C034E1042E000C550B49
:1009200057FF03C0519541955109E32E022F242F03
:10093000AE010E94A906CE01DF91CF911F910F91C8
:10094000EF900895662777270C940308AEE0B0E097
:10095000ECEAF4E00C94B70B0D891E8986E08C83D9
:100960001A8309838FEF9FE79E838D83AE01475ED5
:100970005F4F6F89788DCE0101960E94C804EF8188
:10098000F885E00FF11F10822E96E4E00C94D30B53
:10099000ABE0B0E0EEECF4E00C94A90B6C017B0151
:1009A0008A01FC0117821682838181FFCCC1CE01AE
:1009B00001963C01F6019381F70193FD859193FF28
:1009C00081917F01882309F4BAC1853239F493FDFE
:1009D000859193FF81917F01853229F4B60190E0E2
:1009E0000E94600AE7CF912C212C312CFFE1F315F6
:1009F000D8F08B3279F038F4803279F08332A1F478
:100A0000232D20611DC08D3261F0803369F4232DC8
:100A1000216016C0832D8260382EE32DE4603E2EC7
:100A20002AC0F32DF8601DC037FC2DC020ED280F23
:100A30002A3040F08E32B9F436FC81C1232D206477
:100A4000322E19C036FE06C08AE0989E200D112471
:100A5000922E11C0EAE02E9E200D1124222EF32D9D
:100A6000F0623F2E08C08C3621F4832D8068382E2A
:100A700002C0883641F4F70193FD859193FF81917F
:100A80007F018111B3CF982F9F7D9554933028F427
:100A90000C5F1F4F9FE399830DC0833631F083377E
:100AA00071F0833509F059C021C0F8018081898334
:100AB0000E5F1F4F88248394912C530113C028018B
:100AC000F2E04F0E511CF801A080B18036FE03C049
:100AD000692D70E002C06FEF7FEFC5010E94550ADB
:100AE0004C018201F32DFF773F2E16C0280122E032
:100AF000420E511CF801A080B18036FE03C0692D62
:100B000070E002C06FEF7FEFC5010E944A0A4C01FE
:100B1000F32DF0683F2E820133FC1BC0822D90E044
:100B200088169906B0F4B60180E290E00E94600A4F
:100B30002A94F4CFF50137FC859137FE81915F014E
:100B4000B60190E00E94600A21102A9421E0821AE6
:100B500091088114910471F7E8C0843611F0893648
:100B600041F5F80137FE07C0608171818281938170
:100B70000C5F1F4F08C060817181072E000C880B2D
:100B8000990B0E5F1F4FF32DFF763F2E97FF09C085
:100B900090958095709561957F4F8F4F9F4FF0682E
:100BA0003F2E2AE030E0A3010E949C0A882E86187E
:100BB00045C0853731F4232D2F7EB22E2AE030E058
:100BC00025C0932D997FB92E8F36C1F018F4883542
:100BD00079F0B5C0803719F0883721F0B0C0E92F1F
:100BE000E061BE2EB4FE0DC0FB2DF460BF2E09C027
:100BF00034FE0AC0292F2660B22E06C028E030E05D
:100C000005C020E130E002C020E132E0F801B7FE8B
:100C100007C060817181828193810C5F1F4F06C084
:100C20006081718180E090E00E5F1F4FA3010E9400
:100C30009C0A882E8618FB2DFF773F2E36FE0DC0AE
:100C4000232D2E7FA22E891458F434FE0BC032FCC3
:100C500009C0832D8E7EA82E05C0B82CA32C03C0FE
:100C6000B82C01C0B92CA4FE0FC0FE01E80DF11D87
:100C70008081803321F49A2D997EA92E09C0A2FE8D
:100C800006C0B394B39404C08A2D867809F0B39457
:100C9000A3FC11C0A0FE06C0B21488F4280C922C4C
:100CA0009B180EC0B21460F4B60180E290E00E947E
:100CB000600AB394F7CFB21418F42B1802C0982C22
:100CC000212CA4FE10C0B60180E390E00E94600ACF
:100CD000A2FE17C0A1FC03C088E790E002C088E52F
:100CE00090E0B6010CC08A2D867859F0A1FE02C0B2
:100CF0008BE201C080E2A7FC8DE2B60190E00E9489
:100D0000600A891438F4B60180E390E00E94600A1A
:100D10009A94F7CF8A94F301E80DF11D8081B60112
:100D200090E00E94600A8110F5CF222009F442CEA3
:100D3000B60180E290E00E94600A2A94F6CFF601A4
:100D40008681978102C08FEF9FEF2B96E2E10C9492
:100D5000C50BA9E0B0E0EFEAF6E00C94AF0B6A0136
:100D6000122FB02E2BE3201720F0FF24F394F00E67
:100D700002C02CE3F22E0F2D27E0AE014F5F5F4F34
:100D80000E945109BC014981842F8970813031F062
:100D9000E1FC06C0E0FE06C090E205C09DE203C093
:100DA0009BE201C090E05E2D507143FF3CC0911169
:100DB00002C083E001C084E0811718F4212F281BB2
:100DC00001C020E051110BC0F601822F30E28823D0
:100DD00019F031938150FBCFC20ED11C20E0992332
:100DE00029F0D6019C93F60131966F01C601039656
:100DF000E2FE0AC03EE4D6013C9341E411964C93D6
:100E0000119712963C9306C03EE6F601308341E608
:100E100041833283FC01322F40E2332309F442C084
:100E200041933150FACF42FF44C0911102C083E098
:100E300001C084E0811718F4212F281B01C020E095
:100E400051110BC0F601822F30E2882319F0319343
:100E50008150FBCFC20ED11C20E0992329F0D6018E
:100E60009C93F60131966F01C6010396E2FE0BC01A
:100E700039E4D6013C933EE411963C93119736E455
:100E800012963C9307C039E6F60130833EE6318383
:100E900036E63283FC01322F40E2332319F04193CE
:100EA0003150FBCFFC01E20FF11D10828EEF9FEF5E
:100EB000A6C021E030E0911102C020E030E016161B
:100EC00017061CF4FB01319602C0E1E0F0E02E0FA2
:100ED0003F1FBB2021F0EB2DF0E0319602C0E0E097
:100EE000F0E02E0F3F1FE12FF0E02E173F071CF41C
:100EF000121B212F01C020E08E2D887159F4F601BC
:100F0000822F30E2882319F031938150FBCFC20E3B
:100F1000D11C20E0992329F0D6019C93F60131964B
:100F20006F0151110BC0F601822F90E3882319F055
:100F300091938150FBCFC20ED11C20E00F2D060FE4
:100F40009A81342F307144FF03C0913309F401506A
:100F5000101624F4093018F008E001C001E0AB01DC
:100F600077FF02C040E050E0FB01E41BF50BA1E07D
:100F7000B0E0AC0FBD1FEA0FFB1F8EE2A82E4B01A5
:100F8000801A91080B2D10E01195019511094F3F22
:100F9000BFEF5B0721F4D601AC9211966D01641787
:100FA00075072CF08416950614F4818101C080E346
:100FB000415051093196D60111967D0140175107D4
:100FC00024F0D6018C936701E2CF6417750739F4DA
:100FD000963320F4953319F4311101C081E3F60101
:100FE0008083F701822F90E2882319F0919381503A
:100FF000FBCFF701E20FF11D108280E090E029960F
:10100000ECE00C94CB0BA0E0B0E0E9E0F8E00C944D
:10101000AF0BEC016B016115710519F0FB019183B8
:1010200080837E01FFEFEF1AFF0A0881802F90E096
:101030000E94290A892B11F0E701F3CF0D3239F410
:101040007E0182E0E80EF11C098111E008C00B323C
:1010500029F47E0192E0E90EF11C098110E0E7011C
:10106000219743E050E060E770E0CE010E94320A31
:10107000892BC1F4239645E050E06BE670E0CE0189
:101080000E94320A892B09F42596C114D10419F063
:10109000F601D183C0831111F6C060E070E080E8F2
:1010A0009FE7FAC043E050E068E670E0CE010E949E
:1010B000320A892B59F4C114D10409F4E9C0F2E0D1
:1010C000EF0EF11CF601F182E082E2C020E030E098
:1010D000A901C0E0D0E0F70180EDA82EA00E89E0C4
:1010E0008A1530F1912F9260B92E812F887012FFEE
:1010F00004C0811124C0219622C081112197A5E04E
:10110000B0E00E949E0BDC01CB01880F991FAA1F43
:10111000BB1F9C01AD012A0D311D411D511D2839F8
:1011200089E93807480789E1580748F0166006C082
:101130009EEFA9120AC013FD40C01860B12E8FEFB8
:10114000E81AF80A00811B2DC6CF802F8F7D8534C9
:10115000A1F580818D3211F4106106C08B3221F02F
:10116000319661E070E004C08181329662E070E007
:1011700080538A3018F0E61BF70B1FC060E070E068
:1011800060389CE079075CF4DB01AA0FBB1FAA0F53
:10119000BB1F6A0F7B1F660F771F680F711D31968B
:1011A000DF0111978C9180538A3050F314FF03C0F4
:1011B000719561957109C60FD71F11FF08C0C11441
:1011C000D10429F0CF010197F60191838083CA01F0
:1011D000B9010E948F03212F2370233019F04B0196
:1011E0005C0106C04B015C01B7FAB094B7F8B0944B
:1011F00020E030E0A901C501B4010E941803882352
:1012000009F43EC0D7FF06C0D195C195D10907E8C2
:1012100010E002C00FE910E06801F8E1CF1AD10830
:1012200090E2E92EF12CCE15DF0574F0F80125913E
:10123000359145915491C501B4010E94FA0A4B01C0
:101240005C01CE19DF09EFCF04501109F594E79442
:101250000C151D0541F78A2D880F8B2D881F8F3F98
:1012600049F020E030E0A901C501B4010E94180353
:10127000811106C082E290E090934F0280934E026B
:10128000C501B40109C060E070E080E89FEF04C0D0
:1012900060E070E080EC9FE7CDB7DEB7ECE00C9447
:1012A000CB0B283008F027E03327DA01990F311DE6
:1012B00087FD916000966105710539F432602E5FFB
:1012C0003D9330E32A95E1F708959F3F30F0803851
:1012D0007105610509F03C5F3C5F3D93913008F07A
:1012E0008068911DDF93CF931F930F93FF92EF922E
:1012F000192F987F9695E92F96959695E90FFF27D8
:10130000E350FF4F99273327EE24FF24A701E7017D
:1013100005900894079428F4360FE71EF81E491F1D
:10132000511D660F771F881F991F0694A1F705901E
:10133000079428F4E70EF81E491F561FC11D770FAA
:10134000881F991F661F0694A1F70590079428F43B
:10135000F80E491F561FC71FD11D880F991F661F02
:10136000771F0694A1F70590079420F4490F561FA4
:10137000C71FD81F990F661F771F881F0694A9F7EC
:1013800084911095177041F0D695C795579547955C
:10139000F794E7941A95C1F7E3EAF0E068941590A2
:1013A000159135916591959105907FE27395E118BE
:1013B000F10A430B560BC90BD009C0F7E10CF11E23
:1013C000431F561FC91FD01D7EF4703311F48A9538
:1013D000E6CFE894015030F0080F0AF40027021716
:1013E00008F4202F2395022F7A3328F079E37D9398
:1013F0002A95E9F710C07D932A9589F6069497956A
:101400006795379517951794E118F10A430B560B1A
:10141000C90BD00998F023957E9173957A3308F023
:1014200070E37C932013B8F77E9170617D9330F068
:10143000839571E37D9370E32A95E1F71124EF9092
:10144000FF900F911F91CF91DF91992787FD909584
:10145000089591110C94670B803219F089508550D2
:10146000C8F70895FB01DC014150504088F08D9190
:1014700081341CF08B350CF4805E659161341CF076
:101480006B350CF4605E861B611171F3990B089546
:10149000881BFCCFFC010590615070400110D8F70B
:1014A000809590958E0F9F1F0895FC0161507040AC
:1014B00001900110D8F7809590958E0F9F1F089589
:1014C0000F931F93CF93DF93FB01238121FD03C073
:1014D0008FEF9FEF2CC022FF16C0468157812481D9
:1014E00035814217530744F4A081B1819D012F5FDC
:1014F0003F4F318320838C93268137812F5F3F4F6D
:101500003783268314C08B01EC01FB010084F18535
:10151000E02D0995892BE1F6D80116968D919C91C5
:101520001797019617969C938E931697CE01DF918D
:10153000CF911F910F910895FA01AA27283051F1F8
:10154000203181F1E8946F936E7F6E5F7F4F8F4FF4
:101550009F4FAF4FB1E03ED0B4E03CD0670F781F53
:10156000891F9A1FA11D680F791F8A1F911DA11D38
:101570006A0F711D811D911DA11D20D009F4689471
:101580003F912AE0269F11243019305D3193DEF619
:10159000CF010895462F4770405D4193B3E00FD0CF
:1015A000C9F7F6CF462F4F70405D4A3318F0495DBA
:1015B00031FD4052419302D0A9F7EACFB4E0A6959D
:1015C0009795879577956795BA95C9F700976105BF
:1015D000710508959B01AC010A2E06945795479515
:1015E00037952795BA95C9F7620F731F841F951F0A
:1015F000A01D08950E940D0B0C9407040E94F9038E
:1016000038F00E94000420F0952311F00C94F003B0
:101610000C94F60311240C943B040E94180470F3FC
:10162000959FC1F3950F50E0551F629FF001729F87
:10163000BB27F00DB11D639FAA27F00DB11DAA1F96
:10164000649F6627B00DA11D661F829F2227B00DE3
:10165000A11D621F739FB00DA11D621F839FA00D6E
:10166000611D221F749F3327A00D611D231F849FBE
:10167000600D211D822F762F6A2F11249F57504015
:101680009AF0F1F088234AF0EE0FFF1FBB1F661F90
:10169000771F881F91505040A9F79E3F510580F059
:1016A0000C94F0030C943B045F3FE4F3983ED4F3B6
:1016B000869577956795B795F795E7959F5FC1F7FD
:1016C000FE2B880F911D9695879597F90895992778
:1016D00088270895A6E1B0E044E050E00C947E0B2A
:1016E0000396272F0E948D0B0E948C0B252F0E94A2
:1016F0008D0B242F0C948D0BDC01CB01FC01F9998F
:10170000FECF06C0F2BDE1BDF89A319600B40D924D
:1017100041505040B8F70895262FF999FECF92BD59
:1017200081BDF89A019700B4021639F01FBA20BDA6
:101730000FB6F894FA9AF99A0FBE08950E94E00B3A
:10174000A59F900DB49F900DA49F800D911D112415
:1017500008952F923F924F925F926F927F928F9255
:101760009F92AF92BF92CF92DF92EF92FF920F9330
:101770001F93CF93DF93CDB7DEB7CA1BDB0B0FB63A
:10178000F894DEBF0FBECDBF09942A8839884888F7
:101790005F846E847D848C849B84AA84B984C8848D
:1017A000DF80EE80FD800C811B81AA81B981CE0F84
:1017B000D11D0FB6F894DEBF0FBECDBFED01089569
:1017C000A29FB001B39FC001A39F700D811D112482
:1017D000911DB29F700D811D1124911D0895F894E3
:0217E000FFCF39
:1017E2000000803F3D3D3D2043616C696272616350
:1017F200696F6E204858373131203D3D3D0D0A005A
:10180200436F6D616E646F733A0D0A002074202D70
:101812003E20546172610D0A002063202D3E204358
:10182200616C696272617220287065736F20636FE8
:101832006E6F6369646F290D0A002070202D3E20AF
:101842004D6F7374726172207065736F0D0A000DB3
:101852000A5265616C697A616E646F2074617261AB
:101862002E2E2E0D0A00546172612067756172641A
:1018720061646120656E20454550524F4D3A2025E6
:101882006C640D0A000D0A496E67726573612070FF
:1018920065736F20636F6E6F6369646F20656E207E
:1018A2006772616D6F732028656A3A20353030297E
:1018B2003A0D0A000D0A4C6569646F3A20004572C0
:1018C200726F723A205065736F206465626520738F
:1018D2006572203E20300D0A00436F6C6F636120F9
:1018E200656C207065736F20792065737065726115
:1018F2002E2E2E0D0A0043616C6962726163696F5C
:101902006E2067756172646164613A204661637436
:101912006F723D005065736F3A2000206720285295
:0A19220041573D256C64290D0A00B1
:00000001FF
