S0110000706570652D7065736F2E7372656385
S11300000C94B1000C94CE000C94CE000C94CE0051
S11300100C94CE000C94CE000C94CE000C94CE0024
S11300200C94CE000C94CE000C94CE000C94CE0014
S11300300C94CE000C94CE000C94CE000C94CE0004
S11300400C94CE000C94CE000C94CE000C94CE00F4
S11300500C94CE000C94CE000C94CE000C94CE00E4
S11300600C9491010C94CE0000407A10F35A00A035
S1130070724E18090010A5D4E80000E8764817006D
S113008000E40B54020000CA9A3B000000E1F505AD
S1130090000080969800000040420F000000A086F7
S11300A001000000102700000000E8030000000029
S11300B06400000000000A000000000001000000CD
S11300C000002C76D888DC674F0823DFC1DFAE59E7
S11300D0E1B1B796E5E3E453C63AE651997696E87A
S11300E0E6C28426EB898C9B62ED407C6FFCEFBCFE
S11300F09C9F40F2BAA56FA5F490055A2AF75C9329
S11301006B6CF9676DC11BFCE0E40D47FEF520E65E
S1130110B500D0ED902E0300943577050080841E41
S1130120080000204E0A000000C80C333333330F9C
S1130130986E12831141EF8D2114893BE65516CF39
S1130140FEE6DB18D1844B381BF77C1D901DA4BB45
S1130150E424203284725E228100C9F124ECA1E5FA
S11301603D2711241FBECFEFD8E0DEBFCDBF11E085
S1130170A0E0B1E0E0E9FCE002C005900D92A430FB
S1130180B107D9F721E0A4E0B1E001C01D92AA3182
S1130190B207E1F70E9407020C9446060C94000093
S11301A0CF92DF92EF92FF924A99FECF30E060E067
S11301B070E0CB0125C02BB128602BB925E02A952E
S11301C0F1F70000DC01CB01880F991FAA1FBB1FA8
S11301D04A9B05C0C12CD12C7601C39403C0C12C09
S11301E0D12C7601BC01CD016C297D298E299F2952
S11301F02BB1277F2BB925E02A95F1F700003F5F4B
S11302003831C8F22BB128602BB925E02A95F1F7D3
S113021000002BB1277F2BB987FD9F6FFF90EF90D4
S1130220DF90CF900895CF92DF92EF92FF92CF9319
S1130230DF93D82FC0E0C12CD12C760107C00E94D7
S1130240D000C60ED71EE81EF91ECF5FCD17B8F337
S11302502D2F30E040E050E0C701B6010E945F035B
S1130260CA01B901DF91CF91FF90EF90DF90CF9059
S11302700895CF92DF92EF92FF920E941301C090F3
S11302800601D0900701E0900801F09009016C1973
S11302907D098E099F09C0900001D0900101E09072
S11302A00201F09003010E94AF02A70196010E948F
S11302B03B02FF90EF90DF90CF90089584E090E0B0
S11302C00E94F90560930601709307018093080169
S11302D09093090180E090E00E94F9056093000189
S11302E070930101809302019093030120E030E0B8
S11302F0A9010E943602181664F080E090E0A0E89C
S1130300BFE38093000190930101A0930201B09395
S113031003010895880F8093BA0085EC8093BC0094
S113032008951F920F920FB60F9211248F939F93EB
S1130330EF93FF938091B900887F803BB1F040F444
S1130340883679F0883A89F0803609F054C009C0BB
S1130350803C09F44CC0883C09F449C0883B71F1E5
S11303604AC085EC8093BC0049C010920501EAE0C4
S1130370F1E001900020E9F73197EA50F140E09371
S1130380040180910401811109C080E390E09093FD
S11303900B0180930A0181E080930401E09105013F
S11303A081E08E0F80930501F0E0E65FFE4F8081CF
S11303B08093BB0085EC8093BC0020C09091050124
S11303C080910401981768F4E091050181E08E0F93
S11303D080930501F0E0E65FFE4F80818093BB00CF
S11303E002C01092BB0085EC8093BC0007C085EC72
S11303F08093BC0003C085EC8093BC00FF91EF9117
S11304009F918F910F900FBE0F901F901895CF93CF
S1130410DF93CDB7DEB760970FB6F894DEBF0FBE9B
S1130420CDBF8AB18B7F8AB98AB188608AB90E94AC
S11304305E01789488E00E948A018AE00E94390172
S11304408E010F5F1F4F22E040E00E94A003B8011D
S11304508AE091E00E94C0032FEF89E698E12150E1
S113046080409040E1F700C00000E7CF0E94EA021C
S113047008F481E008950E944F020C9425030E9421
S11304801E0358F00E94170340F029F45F3F29F03F
S11304900C940E0351110C9459030C9414030E94F0
S11304A0360368F39923B1F3552391F3951B550B48
S11304B0BB27AA2762177307840738F09F5F5F4F33
S11304C0220F331F441FAA1FA9F335D00E2E3AF072
S11304D0E0E832D091505040E695001CCAF72BD08A
S11304E0FE2F29D0660F771F881FBB1F26173707DB
S11304F04807AB07B0E809F0BB0B802DBF01FF270D
S113050093585F4F3AF09E3F510578F00C940E03D8
S11305100C9459035F3FE4F3983ED4F386957795A2
S11305206795B795F7959F5FC9F7880F911D9695C5
S1130530879597F90895E1E0660F771F881FBB1F21
S1130540621773078407BA0720F0621B730B840BCE
S1130550BA0BEE1F88F7E0950895E89409C097FB5D
S11305603EF490958095709561957F4F8F4F9F4F86
S11305709923A9F0F92F96E9BB279395F6958795CA
S113058077956795B795F111F8CFFAF4BB0F11F48D
S113059060FF1BC06F5F7F4F8F4F9F4F16C0882334
S11305A011F096E911C0772321F09EE8872F762F6A
S11305B005C0662371F096E8862F70E060E02AF0AB
S11305C09A95660F771F881FDAF7880F9695879597
S11305D097F90895990F0008550FAA0BE0E8FEEF6C
S11305E016161706E807F907C0F012161306E407F3
S11305F0F50798F0621B730B840B950B39F40A26EC
S113060061F0232B242B252B21F408950A2609F4C9
S1130610A140A6958FEF811D811D089597F99F67CD
S113062080E870E060E008959FEF80EC0895002476
S11306300A941616170618060906089500240A9443
S113064012161306140605060895092E0394000CC9
S113065011F4882352F0BB0F40F4BF2B11F460FF58
S113066004C06F5F7F4F8F4F9F4F089557FD905881
S1130670440F551F59F05F3F71F04795880F97FB62
S1130680991F61F09F3F79F087950895121613061C
S11306901406551FF2CF4695F1DF08C0161617064B
S11306A01806991FF1CF8695710561050894089580
S11306B0E894BB2766277727CB0197F90895052E81
S11306C097FB1EF400940E94760357FD07D00E9406
S11306D07E0307FC03D04EF40C94760350954095AA
S11306E0309521953F4F4F4F5F4F089590958095DA
S11306F0709561957F4F8F4F9F4F0895A1E21A2EF9
S1130700AA1BBB1BFD010DC0AA1FBB1FEE1FFF1FB1
S1130710A217B307E407F50720F0A21BB30BE40B01
S1130720F50B661F771F881F991F1A9469F7609548
S11307307095809590959B01AC01BD01CF01089502
S1130740EF920F931F93CF93DF93E80147FD02C00D
S113075034E001C034E1042E000C550B57FF03C0F4
S1130760519541955109E32E022F242FAE010E9489
S1130770C703CE01DF91CF911F910F91EF900895A0
S1130780FB01DC0101900D920020E1F70895A9E03E
S1130790B0E0EDECF3E00C9415066A01122FB02ED4
S11307A02BE3201720F0FF24F394F00E02C02CE377
S11307B0F22E0F2D27E0AE014F5F5F4F0E942105FF
S11307C0BC014981842F8970813031F0E1FC06C07D
S11307D0E0FE06C090E205C09DE203C09BE201C0BA
S11307E090E05E2D507143FF3CC0911102C083E044
S11307F001C084E0811718F4212F281B01C020E0D8
S113080051110BC0F601822F30E2882319F0319385
S11308108150FBCFC20ED11C20E0992329F0D601D0
S11308209C93F60131966F01C6010396E2FE0AC05D
S11308303EE4D6013C9341E411964C9311971296F1
S11308403C9306C03EE6F601308341E641833283A1
S1130850FC01322F40E2332309F442C0419331506A
S1130860FACF42FF44C0911102C083E001C084E08A
S1130870811718F4212F281B01C020E051110BC04F
S1130880F601822F30E2882319F031938150FBCF97
S1130890C20ED11C20E0992329F0D6019C93F601C5
S11308A031966F01C6010396E2FE0BC039E4D6010E
S11308B03C933EE411963C93119736E412963C9394
S11308C007C039E6F60130833EE6318336E63283EB
S11308D0FC01322F40E2332319F041933150FBCF16
S11308E0FC01E20FF11D10828EEF9FEFA6C021E004
S11308F030E0911102C020E030E0161617061CF417
S1130900FB01319602C0E1E0F0E02E0F3F1FBB2057
S113091021F0EB2DF0E0319602C0E0E0F0E02E0F84
S11309203F1FE12FF0E02E173F071CF4121B212F6D
S113093001C020E08E2D887159F4F601822F30E237
S1130940882319F031938150FBCFC20ED11C20E0D3
S1130950992329F0D6019C93F60131966F01511128
S11309600BC0F601822F90E3882319F091938150F4
S1130970FBCFC20ED11C20E00F2D060F9A81342F1D
S1130980307144FF03C0913309F40150101624F46C
S1130990093018F008E001C001E0AB0177FF02C0A4
S11309A040E050E0FB01E41BF50BA1E0B0E0AC0F2C
S11309B0BD1FEA0FFB1F8EE2A82E4B01801A91087F
S11309C00B2D10E01195019511094F3FBFEF5B0707
S11309D021F4D601AC9211966D01641775072CF0C1
S11309E08416950614F4818101C080E341505109B5
S11309F03196D60111967D014017510724F0D60196
S1130A008C936701E2CF6417750739F4963320F4A9
S1130A10953319F4311101C081E3F6018083F701A4
S1130A20822F90E2882319F091938150FBCFF70134
S1130A30E20FF11D108280E090E02996ECE00C9426
S1130A403106283008F027E03327DA01990F311DE9
S1130A5087FD916000966105710539F432602E5F5F
S1130A603D9330E32A95E1F708959F3F30F08038B5
S1130A707105610509F03C5F3C5F3D93913008F0DE
S1130A808068911DDF93CF931F930F93FF92EF9292
S1130A90192F987F9695E92F96959695E90FFF273C
S1130AA0EE53FF4F99273327EE24FF24A701E701D4
S1130AB005900894079428F4360FE71EF81E491F82
S1130AC0511D660F771F881F991F0694A1F7059083
S1130AD0079428F4E70EF81E491F561FC11D770F0F
S1130AE0881F991F661F0694A1F70590079428F4A0
S1130AF0F80E491F561FC71FD11D880F991F661F67
S1130B00771F0694A1F70590079420F4490F561F08
S1130B10C71FD81F990F661F771F881F0694A9F750
S1130B2084911095177041F0D695C79557954795C0
S1130B30F794E7941A95C1F7E8E6F0E06894159005
S1130B40159135916591959105907FE27395E11822
S1130B50F10A430B560BC90BD009C0F7E10CF11E87
S1130B60431F561FC91FD01D7EF4703311F48A959C
S1130B70E6CFE894015030F0080F0AF4002702177A
S1130B8008F4202F2395022F7A3328F079E37D93FC
S1130B902A95E9F710C07D932A9589F606949795CE
S1130BA06795379517951794E118F10A430B560B7F
S1130BB0C90BD00998F023957E9173957A3308F088
S1130BC070E37C932013B8F77E9170617D9330F0CD
S1130BD0839571E37D9370E32A95E1F71124EF90F7
S1130BE0FF900F911F91CF91DF91992787FD9095E9
S1130BF00895A6E1B0E044E050E00C940106DC0165
S1130C00CB01FC01F999FECF06C0F2BDE1BDF89A13
S1130C10319600B40D9241505040B8F708952F9288
S1130C203F924F925F926F927F928F929F92AF9278
S1130C30BF92CF92DF92EF92FF920F931F93CF93C5
S1130C40DF93CDB7DEB7CA1BDB0B0FB6F894DEBF5C
S1130C500FBECDBF09942A88398848885F846E8482
S1130C607D848C849B84AA84B984C884DF80EE80CC
S1130C70FD800C811B81AA81B981CE0FD11D0FB6D5
S1130C80F894DEBF0FBECDBFED010895F894FFCFF9
S1070C900000803F9D
S9030000FC
