S014000070727565626120736572766F2E7372656342
S11300000C9434000C943E000C943E000C943E007E
S11300100C943E000C943E000C943E000C943E0064
S11300200C943E000C943E000C943E000C943E0054
S11300300C943E000C943E000C943E000C943E0044
S11300400C943E000C943E000C943E000C943E0034
S11300500C943E000C943E000C943E000C943E0024
S11300600C943E000C943E0011241FBECFEFD8E048
S1130070DEBFCDBF0E9440000C94F1010C9400003F
S113008087B1816087B90E9465000E948C000E943C
S1130090930001974D9740F488B1816088B980EA54
S11300A09FE00E947B0007C088B18E7F88B980EDF5
S11300B097E00E947B002FEF81EE94E02150804076
S11300C09040E1F700C00000E2CF84B1826084B9BF
S11300D082E8809380008AE18093810080E49CE937
S11300E0909387008093860080ED97E09093890039
S11300F0809388000895803D27E0920710F480EDF6
S113010097E0813A2FE0920710F080EA9FE0909305
S113011089008093880008958AB180628AB98AB17F
S11301208F7B8AB908958BB18F7D8BB900C08BB159
S113013080628BB983E08A95F1F700008BB18F7DE3
S11301408BB94E9BFECF10928500109284004E997D
S1130150FECF609184007091850080E090E00E9461
S1130160F60020E030E040E05FE30E945C0128E21A
S11301703EE74CE05DE30E945C0120E030E040E0BB
S11301805FE30E945C010E94C700CB0108950E94B6
S11301903B0188F09F5798F0B92F9927B751B0F0D9
S11301A0E1F0660F771F881F991F1AF0BA95C9F7F7
S11301B014C0B13091F00E945501B1E008950C943F
S11301C05501672F782F8827B85F39F0B93FCCF3F2
S11301D0869577956795B395D9F73EF49095809574
S11301E0709561957F4F8F4F9F4F0895E89409C094
S11301F097FB3EF490958095709561957F4F8F4F56
S11302009F4F9923A9F0F92F96E9BB279395F6956B
S1130210879577956795B795F111F8CFFAF4BB0FE9
S113022011F460FF1BC06F5F7F4F8F4F9F4F16C04D
S1130230882311F096E911C0772321F09EE8872FD7
S1130240762F05C0662371F096E8862F70E060E093
S11302502AF09A95660F771F881FDAF7880F96950C
S1130260879597F9089557FD9058440F551F59F0F5
S11302705F3F71F04795880F97FB991F61F09F3F8F
S113028079F087950895121613061406551FF2CFB8
S11302904695F1DF08C0161617061806991FF1CF08
S11302A086957105610508940895E894BB2766272F
S11302B07727CB0197F908950E946F010C94E00110
S11302C00E94D20138F00E94D90120F0952311F048
S11302D00C94C9010C94CF0111240C9456010E9472
S11302E0330170F3959FC1F3950F50E0551F629F42
S11302F0F001729FBB27F00DB11D639FAA27F00D7B
S1130300B11DAA1F649F6627B00DA11D661F829FA1
S11303102227B00DA11D621F739FB00DA11D621F86
S1130320839FA00D611D221F749F3327A00D611DA3
S1130330231F849F600D211D822F762F6A2F112485
S11303409F5750409AF0F1F088234AF0EE0FFF1FB8
S1130350BB1F661F771F881F91505040A9F79E3F0F
S1130360510580F00C94C9010C9456015F3FE4F3ED
S1130370983ED4F3869577956795B795F795E79565
S11303809F5FC1F7FE2B880F911D9695879597F96E
S1130390089597F99F6780E870E060E008959FEF03
S11303A080EC089500240A94161617061806090608
S11303B0089500240A9412161306140605060895D7
S11303C0092E0394000C11F4882352F0BB0F40F45F
S11303D0BF2B11F460FF04C06F5F7F4F8F4F9F4F9F
S10903E00895F894FFCF1C
S9030000FC
