S00F00006573636C61766F2E7372656328
S11300000C9434000C943E000C943E000C943E007E
S11300100C943E000C943E000C943E000C943E0064
S11300200C943E000C943E000C943E000C943E0054
S11300300C943E000C943E000C943E000C943E0044
S11300400C943E000C943E000C943E000C943E0034
S11300500C943E000C943E000C943E000C943E0024
S11300600C943E000C943E0011241FBECFEFD8E048
S1130070DEBFCDBF0E9467000C948A000C94000080
S1130080ECE7F0E0808180648083EAE7F0E080813F
S1130090876880830895ECE7F0E09081987F87700B
S11300A0892B8083EAE7F0E08081806480838091FB
S11300B07A0086FDFCCF80917800909179000895B4
S11300C084B1806184B98CB580648CBD08950E942C
S11300D040000E94600080E00E944B00C82FD92F8E
S11300E081E00E944B00DEBD0DB407FEFDCFCEBD06
S11300F00DB407FEFDCF9EBD0DB407FEFDCF8EBD32
S11301000DB407FEFDCF87EA91E60197F1F700C031
S10B01100000E1CFF894FFCFD9
S9030000FC
