:100000000C9434000C9451000C9451000C94510049
:100010000C9451000C9451000C9451000C9451001C
:100020000C9451000C9451000C9451000C9451000C
:100030000C9451000C9451000C9451000C945100FC
:100040000C9451000C9451000C9451000C945100EC
:100050000C9451000C9451000C9451000C945100DC
:100060000C9451000C94510011241FBECFEFD8E026
:10007000DEBFCDBF11E0A0E0B1E0EAE8FEE002C0E3
:1000800005900D92A035B107D9F721E0A0E5B1E0C8
:1000900001C01D92AC35B207E1F70E9494010C94A7
:1000A00043070C9400006F927F928F929F92AF92C1
:1000B000BF92CF92DF92EF92FF920F931F93CF9355
:1000C000DF934B015C01742E652E89010E94410271
:1000D0006B017C01072E000C880B990B0E947902A2
:1000E0009B01AC01C501B4010E94D401C0E0D0E085
:1000F00007C020E030E040E251E40E940503219671
:10010000C017D107B4F30E94410210161106ACF4D7
:100110007F936F93DF92CF9284E091E09F938F93D0
:100120006F927F920E94F6038DB79EB708960FB626
:10013000F8949EBF0FBE8DBF10C0DF92CF9287E0B4
:1001400091E09F938F936F927F920E94F6030F909E
:100150000F900F900F900F900F90DF91CF911F9104
:100160000F91FF90EF90DF90CF90BF90AF909F9056
:100170008F907F906F9008950E94A40184B1806257
:1001800084B985B18F7D85B92FEF83ED90E3215040
:1001900080409040E1F700C000008AE091E00E94BA
:1001A000C3010895CF93DF930E94E60368EC70E0EB
:1001B0000E947203BC0164567109072E000C880B63
:1001C000990B0E94790220E030E04AEF53E40E944C
:1001D000D501609358017093590180935A0190930F
:1001E0005B010E94E603C8E2D0E0BE010E947203F8
:1001F000BC0164517109072E000C880B990B0E94F9
:10020000790220E030E048E452E40E94D501609396
:1002100054017093550180935601909357010E94A9
:10022000E603BE010E947203BC0164517109072EEE
:10023000000C880B990B0E9479022DEC3CEC4CECE5
:100240005DE30E94050320E030E048EC51E40E94A9
:10025000D5016093500170935101809352019093A6
:100260005301DF91CF910895CF93DF93CDB7DEB7E0
:100270006E970FB6F894DEBF0FBECDBF60915801E8
:100280007091590180915A0190915B0121E030E019
:10029000AE014F5F5F4F0E94530060915401709117
:1002A0005501809156019091570121E030E0AE0157
:1002B000455F5F4F0E945300609150017091510162
:1002C000809152019091530121E030E0AE014B5EEC
:1002D0005F4F0E94530083E291E00E94C301CE0170
:1002E00001960E94C30181E391E00E94C301CE0107
:1002F0000B960E94C3018FE391E00E94C301CE01DF
:1003000045960E94C3018CE491E00E94C30195B11F
:1003100080E2892785B96E960FB6F894DEBF0FBECE
:10032000CDBFDF91CF9108950E94BC000E94D20002
:100330000E9434012FEF87EA91E6215080409040DF
:10034000E1F700C00000F2CF8AB18E7F8AB98AB18E
:1003500082608AB9E0ECF0E0108280818260808364
:10036000E1ECF0E01082808188698083E2ECF0E0CB
:10037000108280818660808380E190E09093C50048
:100380008093C4000895AC0120E007C09091C000A4
:1003900095FFFCCF3093C6002F5FFA01E20FF11DED
:1003A00030813111F3CF08955058BB27AA270E94FE
:1003B000EC010C94CB020E94BD0238F00E94C402F2
:1003C00020F039F49F3F19F426F40C94BA020EF48D
:1003D000E095E7FB0C94B402E92F0E94DC0258F38D
:1003E000BA17620773078407950720F079F4A6F51A
:1003F0000C94FE020EF4E0950B2EBA2FA02D0B01EB
:10040000B90190010C01CA01A0011124FF27591B59
:1004100099F0593F50F4503E68F11A16F040A22F5F
:10042000232F342F4427585FF3CF469537952795D0
:10043000A795F0405395C9F77EF41F16BA0B620BCF
:10044000730B840BBAF09150A1F0FF0FBB1F661F16
:10045000771F881FC2F70EC0BA0F621F731F841F59
:1004600048F4879577956795B795F7959E3F08F07F
:10047000B0CF9395880F08F09927EE0F9795879541
:1004800008950E9448026894B1110C94FF020895E7
:100490000E94E40288F09F5798F0B92F9927B7512E
:1004A000B0F0E1F0660F771F881F991F1AF0BA9518
:1004B000C9F714C0B13091F00E94FE02B1E0089576
:1004C0000C94FE02672F782F8827B85F39F0B93F68
:1004D000CCF3869577956795B395D9F73EF49095CB
:1004E0008095709561957F4F8F4F9F4F0895E89449
:1004F00009C097FB3EF490958095709561957F4F6C
:100500008F4F9F4F9923A9F0F92F96E9BB27939519
:10051000F695879577956795B795F111F8CFFAF429
:10052000BB0F11F460FF1BC06F5F7F4F8F4F9F4F5A
:1005300016C0882311F096E911C0772321F09EE8B8
:10054000872F762F05C0662371F096E8862F70E01E
:1005500060E02AF09A95660F771F881FDAF7880FF8
:100560009695879597F9089597F99F6780E870E0C9
:1005700060E008959FEF80EC089500240A94161619
:10058000170618060906089500240A941216130681
:10059000140605060895092E0394000C11F488230F
:1005A00052F0BB0F40F4BF2B11F460FF04C06F5F2B
:1005B0007F4F8F4F9F4F089557FD9058440F551F01
:1005C00059F05F3F71F04795880F97FB991F61F0D5
:1005D0009F3F79F087950895121613061406551F4C
:1005E000F2CF4695F1DF08C0161617061806991FB8
:1005F000F1CF86957105610508940895E894BB27AD
:1006000066277727CB0197F908950E9418030C9469
:10061000CB020E94BD0238F00E94C40220F0952354
:1006200011F00C94B4020C94BA0211240C94FF0241
:100630000E94DC0270F3959FC1F3950F50E0551FA7
:10064000629FF001729FBB27F00DB11D639FAA2727
:10065000F00DB11DAA1F649F6627B00DA11D661F76
:10066000829F2227B00DA11D621F739FB00DA11D97
:10067000621F839FA00D611D221F749F3327A00D51
:10068000611D231F849F600D211D822F762F6A2FED
:1006900011249F5750409AF0F1F088234AF0EE0F52
:1006A000FF1FBB1F661F771F881F91505040A9F77F
:1006B0009E3F510580F00C94B4020C94FF025F3F02
:1006C000E4F3983ED4F3869577956795B795F795BB
:1006D000E7959F5FC1F7FE2B880F911D9695879533
:1006E00097F9089597FB072E16F4009407D077FD2D
:1006F00009D00E94860307FC05D03EF490958195B1
:100700009F4F0895709561957F4F0895AA1BBB1B5D
:1007100051E107C0AA1FBB1FA617B70710F0A61B01
:10072000B70B881F991F5A95A9F780959095BC0122
:10073000CD0108958F929F92AF92BF92CF92DF9298
:10074000EF92FF92CF93DF93EC01688179818A81E8
:100750009B81611571058105910521F464E279EDB4
:100760008BE597E02DE133EF41E050E00E94A906D0
:1007700049015A019B01AC01A7EAB1E40E94C806F5
:100780006B017C01ACEEB4EFA50194010E94D6068A
:10079000DC01CB018C0D9D1DAE1DBF1DB7FF03C03D
:1007A0000197A109B04888839983AA83BB839F7767
:1007B000DF91CF91FF90EF90DF90CF90BF90AF90FF
:1007C0009F908F9008950E949A03089580E091E091
:1007D0000E949A030895A0E0B0E0809300019093F6
:1007E0000101A0930201B09303010895AEE0B0E0CF
:1007F000ECEFF3E00C94E9060D891E8986E08C830A
:100800001A8309838FEF9FE79E838D83AE01475E36
:100810005F4F6F89788DCE0101960E941804EF8199
:10082000F885E00FF11F10822E96E4E00C94050786
:10083000ABE0B0E0EEE1F4E00C94DB066C017B0190
:100840008A01FC0117821682838181FFCCC1CE010F
:1008500001963C01F6019381F70193FD859193FF89
:1008600081917F01882309F4BAC1853239F493FD5F
:10087000859193FF81917F01853229F4B60190E043
:100880000E940F06E7CF912C212C312CFFE1F315AC
:10089000D8F08B3279F038F4803279F08332A1F4D9
:1008A000232D20611DC08D3261F0803369F4232D2A
:1008B000216016C0832D8260382EE32DE4603E2E29
:1008C0002AC0F32DF8601DC037FC2DC020ED280F85
:1008D0002A3040F08E32B9F436FC81C1232D2064D9
:1008E000322E19C036FE06C08AE0989E200D1124D3
:1008F000922E11C0EAE02E9E200D1124222EF32DFF
:10090000F0623F2E08C08C3621F4832D8068382E8B
:1009100002C0883641F4F70193FD859193FF8191E0
:100920007F018111B3CF982F9F7D9554933028F488
:100930000C5F1F4F9FE399830DC0833631F08337DF
:1009400071F0833509F059C021C0F8018081898395
:100950000E5F1F4F88248394912C530113C02801EC
:10096000F2E04F0E511CF801A080B18036FE03C0AA
:10097000692D70E002C06FEF7FEFC5010E94040691
:100980004C018201F32DFF773F2E16C0280122E093
:10099000420E511CF801A080B18036FE03C0692DC3
:1009A00070E002C06FEF7FEFC5010E94F9054C01B6
:1009B000F32DF0683F2E820133FC1BC0822D90E0A6
:1009C00088169906B0F4B60180E290E00E940F0606
:1009D0002A94F4CFF50137FC859137FE81915F01B0
:1009E000B60190E00E940F0621102A9421E0821A9D
:1009F00091088114910471F7E8C0843611F08936AA
:100A000041F5F80137FE07C06081718182819381D1
:100A10000C5F1F4F08C060817181072E000C880B8E
:100A2000990B0E5F1F4FF32DFF763F2E97FF09C0E6
:100A300090958095709561957F4F8F4F9F4FF0688F
:100A40003F2E2AE030E0A3010E944B06882E861834
:100A500045C0853731F4232D2F7EB22E2AE030E0B9
:100A600025C0932D997FB92E8F36C1F018F48835A3
:100A700079F0B5C0803719F0883721F0B0C0E92F80
:100A8000E061BE2EB4FE0DC0FB2DF460BF2E09C088
:100A900034FE0AC0292F2660B22E06C028E030E0BE
:100AA00005C020E130E002C020E132E0F801B7FEED
:100AB00007C060817181828193810C5F1F4F06C0E6
:100AC0006081718180E090E00E5F1F4FA3010E9462
:100AD0004B06882E8618FB2DFF773F2E36FE0DC065
:100AE000232D2E7FA22E891458F434FE0BC032FC25
:100AF00009C0832D8E7EA82E05C0B82CA32C03C060
:100B0000B82C01C0B92CA4FE0FC0FE01E80DF11DE8
:100B10008081803321F49A2D997EA92E09C0A2FEEE
:100B200006C0B394B39404C08A2D867809F0B394B8
:100B3000A3FC11C0A0FE06C0B21488F4280C922CAD
:100B40009B180EC0B21460F4B60180E290E00E94DF
:100B50000F06B394F7CFB21418F42B1802C0982CD8
:100B6000212CA4FE10C0B60180E390E00E940F0685
:100B7000A2FE17C0A1FC03C088E790E002C088E590
:100B800090E0B6010CC08A2D867859F0A1FE02C013
:100B90008BE201C080E2A7FC8DE2B60190E00E94EA
:100BA0000F06891438F4B60180E390E00E940F0626
:100BB0009A94F7CF8A94F301E80DF11D8081B60174
:100BC00090E00E940F068110F5CF222009F442CE5A
:100BD000B60180E290E00E940F062A94F6CFF6015B
:100BE0008681978102C08FEF9FEF2B96E2E10C94F4
:100BF000F706FC010590615070400110D8F7809510
:100C000090958E0F9F1F0895FC01615070400190D8
:100C10000110D8F7809590958E0F9F1F08950F9320
:100C20001F93CF93DF93FB01238121FD03C08FEF3F
:100C30009FEF2CC022FF16C0468157812481358149
:100C40004217530744F4A081B1819D012F5F3F4FAC
:100C5000318320838C93268137812F5F3F4F3783E9
:100C6000268314C08B01EC01FB010084F185E02D8B
:100C70000995892BE1F6D80116968D919C911797CD
:100C8000019617969C938E931697CE01DF91CF9184
:100C90001F910F910895FA01AA27283051F12031B0
:100CA00081F1E8946F936E7F6E5F7F4F8F4F9F4F00
:100CB000AF4FB1E03ED0B4E03CD0670F781F891F42
:100CC0009A1FA11D680F791F8A1F911DA11D6A0F10
:100CD000711D811D911DA11D20D009F468943F91C3
:100CE0002AE0269F11243019305D3193DEF6CF01C2
:100CF0000895462F4770405D4193B3E00FD0C9F788
:100D0000F6CF462F4F70405D4A3318F0495D31FDF4
:100D10004052419302D0A9F7EACFB4E0A695979547
:100D2000879577956795BA95C9F70097610571051D
:100D300008959B01AC010A2E069457954795379567
:100D40002795BA95C9F7620F731F841F951FA01DC1
:100D50000895052E97FB1EF400940E94C00657FDCF
:100D600007D00E94120707FC03D04EF40C94C00673
:100D700050954095309521953F4F4F4F5F4F0895C7
:100D800090958095709561957F4F8F4F9F4F0895F7
:100D90000E943407A59F900DB49F900DA49F800DD5
:100DA000911D11240895B7FF0C94C8060E94C8062F
:100DB000821B930B08952F923F924F925F926F92F6
:100DC0007F928F929F92AF92BF92CF92DF92EF92DB
:100DD000FF920F931F93CF93DF93CDB7DEB7CA1B5C
:100DE000DB0B0FB6F894DEBF0FBECDBF09942A8887
:100DF000398848885F846E847D848C849B84AA842F
:100E0000B984C884DF80EE80FD800C811B81AA81BB
:100E1000B981CE0FD11D0FB6F894DEBF0FBECDBF86
:100E2000ED010895A1E21A2EAA1BBB1BFD010DC006
:100E3000AA1FBB1FEE1FFF1FA217B307E407F5078A
:100E400020F0A21BB30BE40BF50B661F771F881F66
:100E5000991F1A9469F760957095809590959B01FC
:100E6000AC01BD01CF010895A29FB001B39FC001A5
:100E7000A39F700D811D1124911DB29F700D811DC6
:0A0E80001124911D0895F894FFCF8E
:100E8A000100000025642E2564004E616E6F205318
:100E9A00696D756C61746F7220696E6963696164EA
:100EAA006F0A007B227765696768745F67223A2058
:100EBA00002C2022646973745F636D223A20002C2F
:100ECA00202274656D705F63223A20007D0A00005B
:00000001FF
