S01E00004573636C61766F2053656E736F72206465205065736F2E73726563FF
S11300000C948D000C949F000C949F000C949F0002
S11300100C949F000C949F000C949F000C949F00E0
S11300200C949F000C949F000C949F000C949F00D0
S11300300C949F000C949F000C949F000C949F00C0
S11300400C949F000C949F000C949F000C949F00B0
S11300500C949F000C949F000C949F000C949F00A0
S11300600C9444010C949F005F018C018C018C0161
S11300708C018C018C018C015F018C018C018C0141
S11300808C018C018C018C018C018C018C018C0104
S11300908C018C018C018C018C018C018C018C01F4
S11300A08C018C018C018C015F018C018C018C0111
S11300B08C018C018C018C015F018C018C018C0101
S11300C08C018C018C018C015F018C018C018C01F1
S11300D08C018C018C018C015F018C018C018C01E1
S11300E08C018C018C018C015F018C018C018C01D1
S11300F08C018C018C018C0165018C018C018C01BB
S11301008C018C018C018C0165018C018C018C01AA
S11301108C018C018C018C01740111241FBECFEF62
S1130120D8E0DEBFCDBF21E0A0E0B1E001C01D9268
S1130130A930B207E1F70E949C010C942F020C94A1
S113014000008AB1877F8AB98AB184608AB98BB189
S11301508B7F8BB9089589B186958695869591E0B4
S11301608927817008950E94AB008823E1F38BB145
S11301708B7F8BB9000090E040E050E0BA0113C0DF
S11301808BB184608BB90000440F551F661F771F25
S11301904B9B04C04F5F5F4F6F4F7F4F8BB18B7F83
S11301A08BB900009F5F983158F38BB184608BB991
S11301B000008BB18B7F8BB9000067FD7F6FCB0193
S11301C0BA010895CF92DF92EF92FF92CF93DF931B
S11301D0D82FC0E0C12CD12C760107C00E94B300F7
S11301E0C60ED71EE81EF91ECF5FCD17B8F32D2F0C
S11301F030E040E050E0C701B6010E94E801CA01C6
S1130200B901DF91CF91FF90EF90DF90CF900895E7
S1130210CF92DF92EF92FF920F931F93CF93DF93CE
S11302208C01C0E003C00E94B300CF5FC830D8F394
S1130230C0E0D0E0C12CD12C760108C084E00E943B
S1130240E200C60ED71EE81EF91E2196C017D1077C
S1130250A8F3980140E050E0C701B6010E94E8010C
S1130260CA01B901DF91CF911F910F91FF90EF90D7
S1130270DF90CF9008951092B900880F8093BA0050
S113028085E48093BC0008951F920F920FB60F92DD
S113029011248F939F93AF93BF93EF93FF93809118
S11302A0B900E82FE87F8E2F90E0FC01E056F109B9
S11302B0E935F10588F5EC5CFF4F0C9407021092C8
S11302C0000185EC8093BC002CC010920001809149
S11302D00101909102019093BB0081E080930001A1
S11302E085EC8093BC001DC080910001813051F4E5
S11302F080910101909102018093BB0082E0809380
S1130300000106C080910101909102018093BB001D
S113031085EC8093BC0005C01092000185EC8093AD
S1130320BC00FF91EF91BF91AF919F918F910F907E
S11303300FBE0F901F9018950E94A10088E00E94A4
S11303403B0178942FEF8FE097E22150804090405A
S1130350E1F700C0000080E290E00E940801609391
S1130360030170930401809305019093060184E0D6
S11303700E94E20000910301109104012091050103
S113038030910601DC01CB01801B910BA20BB30B56
S11303901AF480E090E0DC01892F9A2FAB2FBB2761
S11303A0009721E0A207B10520F08FEF9FEFA0E0B6
S11303B0B0E0F894909308018093070180910701BD
S11303C09091080190930201809301017894CFCF1A
S11303D0052E97FB1EF400940E94FF0157FD07D0E1
S11303E00E940D0207FC03D04EF40C94FF015095BB
S11303F04095309521953F4F4F4F5F4F089590950D
S11304008095709561957F4F8F4F9F4F0895EE0FA4
S1130410FF1F0590F491E02D0994A1E21A2EAA1B66
S1130420BB1BFD010DC0AA1FBB1FEE1FFF1FA217A0
S1130430B307E407F50720F0A21BB30BE40BF50B9D
S1130440661F771F881F991F1A9469F76095709526
S1130450809590959B01AC01BD01CF010895F8945E
S1050460FFCFC8
S9030000FC
