S01B00004573636C61766F20556C747261736F6E69636F2E7372656389
S11300000C949D000C94BA000C94BA000C94BA00A1
S11300100C94BA000C94BA000C94BA000C94BA0074
S11300200C94BA000C94BA000C94BA000C94BA0064
S11300300C94BA000C94BA000C94BA000C94BA0054
S11300400C94BA000C94BA000C94BA000C94BA0044
S11300500C94BA000C94BA000C94BA000C94BA0034
S11300600C94C8000C94BA00E300060106010601D2
S11300700601060106010601E30006010601060168
S11300800601060106010601E30006010601060158
S11300900601060106010601E30006010601060148
S11300A00601060106010601E70006010601060134
S11300B00601060106010601060106010601060104
S11300C00601060106010601E70006010601060114
S11300D006010601060106010601060106010601E4
S11300E006010601060106010301060106010601D7
S11300F00601060106010601EF00060106010601DC
S11301000601060106010601EF00060106010601CB
S11301100601060106010601F700060106010601B3
S11301200601060106010601FF000601060106019B
S11301300601060106010601FF0011241FBECFEFD0
S1130140D8E0DEBFCDBF11E0A0E0B1E0E6E3F5E02A
S113015002C005900D92A430B107D9F721E0A4E0C4
S1130160B1E001C01D92A630B207E1F70E9411016F
S11301700C9499020C940000880F8093BA0085E4D3
S11301808093BC00109205011092040178940895A4
S11301901F920F920FB60F9211248F939F93AF93D8
S11301A0BF93EF93FF938091B900E82FE87F8E2FE0
S11301B090E0FC01E056F109E936F10538F5EC5C14
S11301C0FF4F0C94840285EC8093BC001FC0809187
S11301D0BB008093040185EC8093BC0017C0809120
S11301E005018093BB0085EC8093BC000FC0809117
S11301F005018093BB0085EC8093BC0007C085ECAF
S11302008093BC0003C085EC8093BC00FF91EF9108
S1130210BF91AF919F918F910F900FBE0F901F9040
S1130220189587B1816087B988B18E7F88B90E949B
S1130230890160E679E088E592E00E949F018AE501
S11302400E94E60180E40E94BC0010E08091040159
S1130250813A29F080910401803A21F402C011E02E
S113026001C010E01123F9F088B1816088B984E1FC
S11302700E94E60189E1809305012FEF80E792E077
S1130280215080409040E1F700C0000088B18E7F8B
S113029088B92FEF80E792E0215080409040E1F749
S11302A000C00000D3CF0E940702EC0199230CF197
S11302B088B1816088B9C931D10524F484E10E94F0
S11302C0E60103C08AE50E94E601CF3FD10511F0A3
S11302D00CF0CFEFC09305012FEF86E791E021509A
S11302E080409040E1F700C0000088B18E7F88B95B
S11302F006C088B18E7F88B98AE50E94E6012FEF97
S11303008AE693E0215080409040E1F700C000006D
S11303109DCF84B1826084B982E8809380008AE1B1
S1130320809381008FE39CE99093870080938600FB
S113033088EB9BE090938900809388000895843F24
S113034021E0920710F484EF91E0653C29E0720704
S113035010F064EC79E08617970720F060ED77E001
S113036088EE93E09093030180930201709301015E
S1130370609300010895843F21E0920710F484EF14
S113038091E0853C29E0920710F084EC99E0A0E02C
S1130390B0E0880F991FAA1FBB1F883E23E0920775
S11303A0A105B10520F488EE93E0A0E0B0E089381F
S11303B023E19207A105B10520F088E893E1A0E0CC
S11303C0B0E090938900809388000895CF93DF93E1
S11303D0853B08F084EBC0910201D0910301209188
S11303E00001309101012C1B3D0BA82FB0E00E94AD
S11303F08A0224EB30E040E050E00E946202CE0129
S1130400820F931F0E94BB01DF91CF9108958AB19F
S113041080628AB98AB18F7B8AB98BB18F7D8BB99F
S113042000C000C000008BB180628BB923E02A9524
S1130430F1F700008BB18F7D8BB980E090E0DC0197
S11304400AC00196A11DB11D883A61E69607A1056F
S1130450B10560F500004E9BF4CF80E090E0DC0134
S11304600AC00196A11DB11D893A21E69207A10592
S1130470B105F8F400004E99F4CF86399105A10531
S1130480B105D0F0BC01CD012AE330E040E050E0FA
S11304900E946202DA01C9010297A109B1098F38E9
S11304A09140A105B10558F4C90108958FEF9FEF5C
S11304B008958FEF9FEF08958FEF9FEF08958FEFCB
S11304C09FEF0895A1E21A2EAA1BBB1BFD010DC0CC
S11304D0AA1FBB1FEE1FFF1FA217B307E407F507F0
S11304E020F0A21BB30BE40BF50B661F771F881FCC
S11304F0991F1A9469F760957095809590959B0162
S1130500AC01BD01CF010895EE0FFF1F0590F491DA
S1130510E02D0994A29FB001B39FC001A39F700D69
S1130520811D1124911DB29F700D811D1124911DF7
S10905300895F894FFCFCA
S1070536D007E803FB
S9030000FC
