:100000000C9434000C9446000C9446000C9446006A
:100010000C9446000C9446000C9446000C94460048
:100020000C9446000C9446000C9446000C94460038
:100030000C9446000C9446000C94ED000C94460081
:100040000C9446000C9446000C9446000C94460018
:100050000C9446000C9446000C9446000C94460008
:100060000C94A0000C94460011241FBECFEFD8E0E2
:10007000DEBFCDBF21E0A0E0B1E001C01D92A53000
:10008000B207E1F70E9462000C9454030C94000044
:1000900097B19F7C97B9880F8093BA0085E48093CD
:1000A000BC00089587B1816087B988B18E7F88B917
:1000B000089582E084BD95E095BD9BE997BD80934E
:1000C0006E0008950E9452000E9405010E942C01BA
:1000D00080E40E9448000E945900789480910101B8
:1000E000882319F1109201010E943C0190930301B1
:1000F000809302018091020190910301892B71F09C
:1001000080910201909103014E9740F488B1816083
:1001100088B980EA9FE00E941B0107C088B18E7FEA
:1001200088B980ED97E00E941B018091040183341F
:10013000A9F698B181E0892788B910920401CECF41
:100140001F920F920FB60F9211248F939F93EF93EC
:10015000FF938091B9008C7F803899F028F4803625
:1001600051F0803741F02BC0883AA9F0883B99F0D4
:10017000803929F506C0ECEBF0E08081806880834F
:1001800023C08091BB0080930401ECEBF0E0808100
:100190008068808319C080910201909103018F3F94
:1001A000910509F028F4809102019091030101C0AA
:1001B0008FEF8093BB0085EC8093BC0005C0ECEB17
:1001C000F0E0808180698083FF91EF919F918F9112
:1001D0000F900FBE0F901F9018951F920F920FB6A1
:1001E0000F9211248F93809100018F5F8093000103
:1001F0008A3028F01092000181E0809301018F91F4
:100200000F900FBE0F901F90189584B1826084B933
:1002100082E8809380008AE18093810080E49CE9F9
:10022000909387008093860080ED97E090938900FB
:10023000809388000895803D27E0920710F480EDB8
:1002400097E0813A2FE0920710F080EA9FE09093C8
:1002500089008093880008958AB180628AB98AB142
:100260008F7B8AB91092800082E080938100109287
:1002700085001092840008958F929F92AF92BF9252
:10028000CF92DF92EF92FF920F93CF93C0E0C12CF9
:10029000D12C760157C08BB18F7D8BB900C08BB14B
:1002A00080628BB923E02A95F1F700008BB18F7D36
:1002B0008BB980E090E0DC0103C00196A11DB11D67
:1002C0004E9906C0803325E79207A105B105A8F332
:1002D000109285001092840080E090E0DC0103C061
:1002E0000196A11DB11D4E9B06C0803325E79207E4
:1002F000A105B105A8F3609184007091850080E0AC
:1003000090E00E94F80120E030E040E05FE30E94CE
:100310005E0228E23EE74CE05DE30E945E0220E0E0
:1003200030E040E05FE30E945E020E94C901C60E19
:10033000D71EE11CF11C83EC99E00197F1F700C096
:100340000000CF5FC53008F4A6CFC701B6012DEC81
:100350003CEC4CEC5CEC0E94F30200E20E942003B7
:10036000822E932EA42EB52ED501C401B695A79545
:1003700097958795B695A79597958795CF910F9166
:10038000FF90EF90DF90CF90BF90AF909F908F90B5
:1003900008950E943D0288F09F5798F0B92F992741
:1003A000B751B0F0E1F0660F771F881F991F1AF060
:1003B000BA95C9F714C0B13091F00E945702B1E06C
:1003C00008950C945702672F782F8827B85F39F06B
:1003D000B93FCCF3869577956795B395D9F73EF4F9
:1003E00090958095709561957F4F8F4F9F4F0895A1
:1003F000E89409C097FB3EF49095809570956195BF
:100400007F4F8F4F9F4F9923A9F0F92F96E9BB2774
:100410009395F695879577956795B795F111F8CFF0
:10042000FAF4BB0F11F460FF1BC06F5F7F4F8F4F5B
:100430009F4F16C0882311F096E911C0772321F051
:100440009EE8872F762F05C0662371F096E8862FE9
:1004500070E060E02AF09A95660F771F881FDAF740
:10046000880F9695879597F9089557FD9058440FF2
:10047000551F59F05F3F71F04795880F97FB991F03
:1004800061F09F3F79F087950895121613061406C0
:10049000551FF2CF4695F1DF08C01616170618064D
:1004A000991FF1CF86957105610508940895E89428
:1004B000BB2766277727CB0197F908950E94710221
:1004C0000C94E2020E94D40238F00E94DB0220F079
:1004D000952311F00C94CB020C94D10211240C94AE
:1004E00058020E94350270F3959FC1F3950F50E0BA
:1004F000551F629FF001729FBB27F00DB11D639FD6
:10050000AA27F00DB11DAA1F649F6627B00DA11D7B
:10051000661F829F2227B00DA11D621F739FB00D21
:10052000A11D621F839FA00D611D221F749F332791
:10053000A00D611D231F849F600D211D822F762F2A
:100540006A2F11249F5750409AF0F1F088234AF007
:10055000EE0FFF1FBB1F661F771F881F9150504073
:10056000A9F79E3F510580F00C94CB020C945802E1
:100570005F3FE4F3983ED4F3869577956795B795FA
:10058000F795E7959F5FC1F7FE2B880F911D969514
:10059000879597F9089597F99F6780E870E060E084
:1005A00008959FEF80EC089500240A94161617060C
:1005B00018060906089500240A9412161306140654
:1005C00005060895092E0394000C11F4882352F0B7
:1005D000BB0F40F4BF2B11F460FF04C06F5F7F4F6F
:1005E0008F4F9F4F0895E894DF93CF93FC01DB0179
:1005F0000E943C037F936F93E9019A01AC01BF9382
:10060000AF933F932F93DF010E943C0326F46C1BB2
:100610007D0B820B930B9E01EB01FC010E944B03AF
:10062000AF91BF912F913F910E944B03BE01CF012B
:10063000F9012F913F91CF91DF91089597FB10F829
:10064000169400080F93083098F00850232F342F89
:10065000452F562F672F782F892F902DF4CF059493
:1006600097958795779567955795479537952795EA
:100670000A95AAF70F910895A29FB001B39FC001F8
:10068000A39F700D811D1124911DB29F700D811DBE
:100690001124911D08950E943C03460F571FC81F47
:0C06A000D91F08F431960895F894FFCF9C
:00000001FF
