:100000000C9434000C9449000C9449000C94490061
:100010000C9449000C9449000C9449000C9449003C
:100020000C9449000C9449000C9449000C9449002C
:100030000C9449000C9449000C9449000C9449001C
:100040000C9449000C9449000C9449000C9449000C
:100050000C9449000C9449000C9449000C944900FC
:100060000C9449000C94490011241FBECFEFD8E036
:10007000DEBFCDBF11E0A0E0B1E0E6E9F7E002C0ED
:1000800005900D92AE34B107D9F70E947C010C9413
:10009000C9030C9400009093C5008093C40088E1CC
:1000A0008093C10086E08093C20008959091C000C3
:1000B00095FFFCCF8093C6000895CF93DF93EC01AA
:1000C00003C021960E94560088818111FACFDF91EA
:1000D000CF9108958F929F92AF92BF92CF92DF926D
:1000E000EF92FF920F931F93CF93DF93CDB7DEB7BD
:1000F0002A970FB6F894DEBF0FBECDBF6B017C010F
:10010000042F20E030E0A9010E94120288233CF471
:100110008DE20E945600F7FAF094F7F8F094C701C8
:10012000B6010E9417024B015C014AE0BE016F5FFD
:100130007F4FC4010E949403CE0101960E945D008E
:10014000002351F18EE20E945600B401990C880BF5
:10015000990B0E944F029B01AC01C701B6010E949E
:10016000A5016B017C0110E015C020E030E040E209
:1001700051E4C701B6010E94FF026B017C010E949D
:100180001702CB016AE070E00E946C03805D0E9460
:1001900056001F5F101748F32A960FB6F894DEBF7B
:1001A0000FBECDBFDF91CF911F910F91FF90EF90C8
:1001B000DF90CF90BF90AF909F908F900895109256
:1001C000B90088E48093B80084E08093BC0008956F
:1001D00094EA9093BC009091BC009923E4F790912D
:1001E000B900987F983011F0903189F490E0880F31
:1001F000991F862B8093BB0084E88093BC0080917C
:10020000BC008823E4F78091B900887F0895892F86
:1002100008958093BB0084E88093BC008091BC006B
:100220008823E4F78091B900887F089584EC809357
:10023000BC008091BC008823E4F78091BB00089546
:1002400084E88093BC008091BC008823E4F780910F
:10025000BB00089584E98093BC0081E28A95F1F7A0
:1002600000000895CF93DF9360E088E40E94E800E7
:10027000883189F580E00E940901883289F561E0C2
:1002800088E40E94E800803481F50E941601C82F9E
:100290000E942001D82F0E942A016C2F70E0762F37
:1002A00066276D2B75956795759567957595679517
:1002B000759567957595679572FD786F072E000C9B
:1002C000880B990B0E944F0220E030E040E05EE393
:1002D0000E94FF020EC06DEC7CEC87EC92EC09C032
:1002E0006DEC7CEC87EC92EC04C06DEC7CEC87EC64
:1002F00092ECDF91CF91089587E690E00E944B0049
:100300000E94DF0080E091E00E945D008EE191E0BC
:100310000E945D000E9432016B017C018AE391E042
:100320000E945D0042E0C701B6010E946A0088E4B5
:1003300091E00E945D002FE38DE093E0215080402A
:100340009040E1F700C00000E5CF5058BB27AA2736
:100350000E94BD010C94C5020E94B70238F00E94B1
:10036000BE0220F039F49F3F19F426F40C94B40235
:100370000EF4E095E7FB0C94AE02E92F0E94D60242
:1003800058F3BA17620773078407950720F079F4CA
:10039000A6F50C94F8020EF4E0950B2EBA2FA02DC2
:1003A0000B01B90190010C01CA01A0011124FF2722
:1003B000591B99F0593F50F4503E68F11A16F0401D
:1003C000A22F232F342F4427585FF3CF469537951C
:1003D0002795A795F0405395C9F77EF41F16BA0BE1
:1003E000620B730B840BBAF09150A1F0FF0FBB1F8F
:1003F000661F771F881FC2F70EC0BA0F621F731FD8
:10040000841F48F4879577956795B795F7959E3F34
:1004100008F0B0CF9395880F08F09927EE0F9795C5
:10042000879508950E948A0208F481E008950E9449
:100430001E026894B1110C94F90208950E94DE0224
:1004400088F09F5798F0B92F9927B751B0F0E1F095
:10045000660F771F881F991F1AF0BA95C9F714C045
:10046000B13091F00E94F802B1E008950C94F802C6
:10047000672F782F8827B85F39F0B93FCCF386957E
:1004800077956795B395D9F73EF4909580957095DB
:1004900061957F4F8F4F9F4F0895E89409C097FB58
:1004A0003EF490958095709561957F4F8F4F9F4F4B
:1004B0009923A9F0F92F96E9BB279395F69587958F
:1004C00077956795B795F111F8CFFAF4BB0F11F452
:1004D00060FF1BC06F5F7F4F8F4F9F4F16C08823F9
:1004E00011F096E911C0772321F09EE8872F762F2F
:1004F00005C0662371F096E8862F70E060E02AF070
:100500009A95660F771F881FDAF7880F969587955B
:1005100097F90895990F0008550FAA0BE0E8FEEF30
:1005200016161706E807F907C0F012161306E407B7
:10053000F50798F0621B730B840B950B39F40A26B0
:1005400061F0232B242B252B21F408950A2609F48E
:10055000A140A6958FEF811D811D089597F99F6792
:1005600080E870E060E008959FEF80EC089500243B
:100570000A941616170618060906089500240A9408
:1005800012161306140605060895092E0394000C8E
:1005900011F4882352F0BB0F40F4BF2B11F460FF1D
:1005A00004C06F5F7F4F8F4F9F4F089557FD905846
:1005B000440F551F59F05F3F71F04795880F97FB27
:1005C000991F61F09F3F79F08795089512161306E1
:1005D0001406551FF2CF4695F1DF08C01616170610
:1005E0001806991FF1CF8695710561050894089545
:1005F000E894BB2766277727CB0197F908950E94D7
:1006000012030C94C5020E94B70238F00E94BE0289
:1006100020F0952311F00C94AE020C94B402112436
:100620000C94F9020E94D60270F3959FC1F3950FC6
:1006300050E0551F629FF001729FBB27F00DB11D66
:10064000639FAA27F00DB11DAA1F649F6627B00DF6
:10065000A11D661F829F2227B00DA11D621F739FDF
:10066000B00DA11D621F839FA00D611D221F749FED
:100670003327A00D611D231F849F600D211D822F34
:10068000762F6A2F11249F5750409AF0F1F088235B
:100690004AF0EE0FFF1FBB1F661F771F881F915088
:1006A0005040A9F79E3F510580F00C94AE020C9487
:1006B000F9025F3FE4F3983ED4F38695779567950A
:1006C000B795F795E7959F5FC1F7FE2B880F911DB2
:1006D0009695879597F9089597FB072E16F4009441
:1006E00007D077FD09D00E94800307FC05D03EF4B7
:1006F000909581959F4F0895709561957F4F0895CE
:10070000AA1BBB1B51E107C0AA1FBB1FA617B70737
:1007100010F0A61BB70B881F991F5A95A9F7809553
:100720009095BC01CD010895BB274A3031F499233F
:1007300022F4BDE2909581959F4F0C94A003BB27B6
:10074000FB015527AA27880F991FAA1FA41710F08D
:10075000A41B83955051B9F7A05DAA3308F0A95D99
:10076000A193009779F7B111B1931192CB010C9439
:10077000B903DC01FC01672F71917723E1F7329710
:1007800004C07C916D9370836291AE17BF07C8F36C
:060790000895F894FFCF6C
:100796004D6F6E69746F722064652054656D706567
:1007A600726174757261204C4D37350D0A003D3DFE
:1007B6003D3D3D3D3D3D3D3D3D3D3D3D3D3D3D3D63
:1007C6003D3D3D3D3D3D3D0D0A0054656D706572F4
:0E07D60061747572613A200020B0430D0A0074
:00000001FF
